{
  "_format": "hh-sol-artifact-1",
  "contractName": "DynamicLendingPool",
  "sourceName": "contracts/DynamicLendingPool.sol",
  "abi": [
    {
      "inputs": [],
      "stateMutability": "nonpayable",
      "type": "constructor"
    },
    {
      "anonymous": false,
      "inputs": [
        {
          "indexed": false,
          "internalType": "string",
          "name": "symbol",
          "type": "string"
        },
        {
          "indexed": false,
          "internalType": "address",
          "name": "tokenAddress",
          "type": "address"
        },
        {
          "indexed": false,
          "internalType": "address",
          "name": "priceFeed",
          "type": "address"
        },
        {
          "indexed": false,
          "internalType": "uint256",
          "name": "baseInterestRate",
          "type": "uint256"
        },
        {
          "indexed": false,
          "internalType": "uint256",
          "name": "collateralFactor",
          "type": "uint256"
        }
      ],
      "name": "AssetAdded",
      "type": "event"
    },
    {
      "anonymous": false,
      "inputs": [
        {
          "indexed": false,
          "internalType": "string",
          "name": "symbol",
          "type": "string"
        },
        {
          "indexed": false,
          "internalType": "uint256",
          "name": "baseInterestRate",
          "type": "uint256"
        },
        {
          "indexed": false,
          "internalType": "uint256",
          "name": "collateralFactor",
          "type": "uint256"
        }
      ],
      "name": "AssetUpdated",
      "type": "event"
    },
    {
      "anonymous": false,
      "inputs": [
        {
          "indexed": true,
          "internalType": "address",
          "name": "user",
          "type": "address"
        },
        {
          "indexed": false,
          "internalType": "string",
          "name": "symbol",
          "type": "string"
        },
        {
          "indexed": false,
          "internalType": "uint256",
          "name": "amount",
          "type": "uint256"
        }
      ],
      "name": "Borrow",
      "type": "event"
    },
    {
      "anonymous": false,
      "inputs": [
        {
          "indexed": true,
          "internalType": "address",
          "name": "user",
          "type": "address"
        },
        {
          "indexed": false,
          "internalType": "string",
          "name": "symbol",
          "type": "string"
        },
        {
          "indexed": false,
          "internalType": "uint256",
          "name": "amount",
          "type": "uint256"
        }
      ],
      "name": "Deposit",
      "type": "event"
    },
    {
      "anonymous": false,
      "inputs": [
        {
          "indexed": false,
          "internalType": "string",
          "name": "symbol",
          "type": "string"
        },
        {
          "indexed": false,
          "internalType": "uint256",
          "name": "newRate",
          "type": "uint256"
        }
      ],
      "name": "InterestRateUpdated",
      "type": "event"
    },
    {
      "anonymous": false,
      "inputs": [
        {
          "indexed": true,
          "internalType": "address",
          "name": "user",
          "type": "address"
        },
        {
          "indexed": false,
          "internalType": "string",
          "name": "symbol",
          "type": "string"
        },
        {
          "indexed": false,
          "internalType": "uint256",
          "name": "amount",
          "type": "uint256"
        },
        {
          "indexed": false,
          "internalType": "address",
          "name": "liquidator",
          "type": "address"
        }
      ],
      "name": "Liquidated",
      "type": "event"
    },
    {
      "anonymous": false,
      "inputs": [
        {
          "indexed": true,
          "internalType": "address",
          "name": "previousOwner",
          "type": "address"
        },
        {
          "indexed": true,
          "internalType": "address",
          "name": "newOwner",
          "type": "address"
        }
      ],
      "name": "OwnershipTransferred",
      "type": "event"
    },
    {
      "anonymous": false,
      "inputs": [
        {
          "indexed": true,
          "internalType": "address",
          "name": "user",
          "type": "address"
        },
        {
          "indexed": false,
          "internalType": "string",
          "name": "symbol",
          "type": "string"
        },
        {
          "indexed": false,
          "internalType": "uint256",
          "name": "amount",
          "type": "uint256"
        },
        {
          "indexed": false,
          "internalType": "uint256",
          "name": "interest",
          "type": "uint256"
        }
      ],
      "name": "Repay",
      "type": "event"
    },
    {
      "anonymous": false,
      "inputs": [
        {
          "indexed": true,
          "internalType": "address",
          "name": "user",
          "type": "address"
        },
        {
          "indexed": false,
          "internalType": "string",
          "name": "symbol",
          "type": "string"
        },
        {
          "indexed": false,
          "internalType": "uint256",
          "name": "amount",
          "type": "uint256"
        }
      ],
      "name": "Withdraw",
      "type": "event"
    },
    {
      "inputs": [],
      "name": "INTEREST_RATE_PRECISION",
      "outputs": [
        {
          "internalType": "uint256",
          "name": "",
          "type": "uint256"
        }
      ],
      "stateMutability": "view",
      "type": "function"
    },
    {
      "inputs": [],
      "name": "YEAR_IN_SECONDS",
      "outputs": [
        {
          "internalType": "uint256",
          "name": "",
          "type": "uint256"
        }
      ],
      "stateMutability": "view",
      "type": "function"
    },
    {
      "inputs": [
        {
          "internalType": "string",
          "name": "symbol",
          "type": "string"
        },
        {
          "internalType": "address",
          "name": "tokenAddress",
          "type": "address"
        },
        {
          "internalType": "address",
          "name": "priceFeed",
          "type": "address"
        },
        {
          "internalType": "uint256",
          "name": "baseInterestRate",
          "type": "uint256"
        },
        {
          "internalType": "uint256",
          "name": "collateralFactor",
          "type": "uint256"
        },
        {
          "internalType": "uint8",
          "name": "decimals",
          "type": "uint8"
        }
      ],
      "name": "addAsset",
      "outputs": [],
      "stateMutability": "nonpayable",
      "type": "function"
    },
    {
      "inputs": [
        {
          "internalType": "uint256",
          "name": "",
          "type": "uint256"
        }
      ],
      "name": "assetSymbols",
      "outputs": [
        {
          "internalType": "string",
          "name": "",
          "type": "string"
        }
      ],
      "stateMutability": "view",
      "type": "function"
    },
    {
      "inputs": [
        {
          "internalType": "string",
          "name": "",
          "type": "string"
        }
      ],
      "name": "assets",
      "outputs": [
        {
          "internalType": "address",
          "name": "tokenAddress",
          "type": "address"
        },
        {
          "internalType": "address",
          "name": "priceFeed",
          "type": "address"
        },
        {
          "internalType": "uint256",
          "name": "decimals",
          "type": "uint256"
        },
        {
          "internalType": "uint256",
          "name": "baseInterestRate",
          "type": "uint256"
        },
        {
          "internalType": "uint256",
          "name": "collateralFactor",
          "type": "uint256"
        },
        {
          "internalType": "uint256",
          "name": "currentInterestRate",
          "type": "uint256"
        },
        {
          "internalType": "uint256",
          "name": "totalDeposited",
          "type": "uint256"
        },
        {
          "internalType": "uint256",
          "name": "totalBorrowed",
          "type": "uint256"
        },
        {
          "internalType": "bool",
          "name": "isActive",
          "type": "bool"
        }
      ],
      "stateMutability": "view",
      "type": "function"
    },
    {
      "inputs": [
        {
          "internalType": "string",
          "name": "symbol",
          "type": "string"
        },
        {
          "internalType": "uint256",
          "name": "amount",
          "type": "uint256"
        }
      ],
      "name": "borrow",
      "outputs": [],
      "stateMutability": "nonpayable",
      "type": "function"
    },
    {
      "inputs": [
        {
          "internalType": "string",
          "name": "symbol",
          "type": "string"
        },
        {
          "internalType": "uint256",
          "name": "amount",
          "type": "uint256"
        }
      ],
      "name": "deposit",
      "outputs": [],
      "stateMutability": "nonpayable",
      "type": "function"
    },
    {
      "inputs": [],
      "name": "getAllAssetSymbols",
      "outputs": [
        {
          "internalType": "string[]",
          "name": "",
          "type": "string[]"
        }
      ],
      "stateMutability": "view",
      "type": "function"
    },
    {
      "inputs": [
        {
          "internalType": "string",
          "name": "symbol",
          "type": "string"
        }
      ],
      "name": "getAssetDetails",
      "outputs": [
        {
          "internalType": "address",
          "name": "tokenAddress",
          "type": "address"
        },
        {
          "internalType": "uint256",
          "name": "totalDeposited",
          "type": "uint256"
        },
        {
          "internalType": "uint256",
          "name": "totalBorrowed",
          "type": "uint256"
        }
      ],
      "stateMutability": "view",
      "type": "function"
    },
    {
      "inputs": [
        {
          "internalType": "string",
          "name": "symbol",
          "type": "string"
        }
      ],
      "name": "getAssetPrice",
      "outputs": [
        {
          "internalType": "uint256",
          "name": "",
          "type": "uint256"
        }
      ],
      "stateMutability": "view",
      "type": "function"
    },
    {
      "inputs": [
        {
          "internalType": "string",
          "name": "symbol",
          "type": "string"
        }
      ],
      "name": "getCurrentInterestRate",
      "outputs": [
        {
          "internalType": "uint256",
          "name": "",
          "type": "uint256"
        }
      ],
      "stateMutability": "view",
      "type": "function"
    },
    {
      "inputs": [
        {
          "internalType": "address",
          "name": "user",
          "type": "address"
        },
        {
          "internalType": "string",
          "name": "symbol",
          "type": "string"
        }
      ],
      "name": "getUserPosition",
      "outputs": [
        {
          "internalType": "uint256",
          "name": "deposited",
          "type": "uint256"
        },
        {
          "internalType": "uint256",
          "name": "borrowed",
          "type": "uint256"
        },
        {
          "internalType": "uint256",
          "name": "interestDue",
          "type": "uint256"
        }
      ],
      "stateMutability": "view",
      "type": "function"
    },
    {
      "inputs": [
        {
          "internalType": "address",
          "name": "user",
          "type": "address"
        },
        {
          "internalType": "string",
          "name": "symbol",
          "type": "string"
        },
        {
          "internalType": "uint256",
          "name": "amount",
          "type": "uint256"
        }
      ],
      "name": "liquidate",
      "outputs": [],
      "stateMutability": "nonpayable",
      "type": "function"
    },
    {
      "inputs": [],
      "name": "owner",
      "outputs": [
        {
          "internalType": "address",
          "name": "",
          "type": "address"
        }
      ],
      "stateMutability": "view",
      "type": "function"
    },
    {
      "inputs": [],
      "name": "renounceOwnership",
      "outputs": [],
      "stateMutability": "nonpayable",
      "type": "function"
    },
    {
      "inputs": [
        {
          "internalType": "string",
          "name": "symbol",
          "type": "string"
        },
        {
          "internalType": "uint256",
          "name": "amount",
          "type": "uint256"
        }
      ],
      "name": "repay",
      "outputs": [],
      "stateMutability": "nonpayable",
      "type": "function"
    },
    {
      "inputs": [
        {
          "internalType": "address",
          "name": "newOwner",
          "type": "address"
        }
      ],
      "name": "transferOwnership",
      "outputs": [],
      "stateMutability": "nonpayable",
      "type": "function"
    },
    {
      "inputs": [
        {
          "internalType": "string",
          "name": "symbol",
          "type": "string"
        },
        {
          "internalType": "uint256",
          "name": "baseInterestRate",
          "type": "uint256"
        },
        {
          "internalType": "uint256",
          "name": "collateralFactor",
          "type": "uint256"
        }
      ],
      "name": "updateAsset",
      "outputs": [],
      "stateMutability": "nonpayable",
      "type": "function"
    },
    {
      "inputs": [
        {
          "internalType": "string",
          "name": "symbol",
          "type": "string"
        },
        {
          "internalType": "uint256",
          "name": "newInterestRate",
          "type": "uint256"
        }
      ],
      "name": "updateInterestRate",
      "outputs": [],
      "stateMutability": "nonpayable",
      "type": "function"
    },
    {
      "inputs": [
        {
          "internalType": "address",
          "name": "",
          "type": "address"
        },
        {
          "internalType": "string",
          "name": "",
          "type": "string"
        }
      ],
      "name": "userPositions",
      "outputs": [
        {
          "internalType": "uint256",
          "name": "deposited",
          "type": "uint256"
        },
        {
          "internalType": "uint256",
          "name": "borrowed",
          "type": "uint256"
        },
        {
          "internalType": "uint256",
          "name": "lastInterestUpdate",
          "type": "uint256"
        },
        {
          "internalType": "uint256",
          "name": "interestIndex",
          "type": "uint256"
        }
      ],
      "stateMutability": "view",
      "type": "function"
    },
    {
      "inputs": [
        {
          "internalType": "string",
          "name": "symbol",
          "type": "string"
        },
        {
          "internalType": "uint256",
          "name": "amount",
          "type": "uint256"
        }
      ],
      "name": "withdraw",
      "outputs": [],
      "stateMutability": "nonpayable",
      "type": "function"
    }
  ],
  "bytecode": "0x608060405234801561001057600080fd5b50600160005561001f33610024565b610076565b600180546001600160a01b038381166001600160a01b0319831681179093556040519116919082907f8be0079c531659141344cd1fd0a4f28419497f9722a3daafe3b4186f6b6457e090600090a35050565b6125b5806100856000396000f3fe608060405234801561001057600080fd5b50600436106101375760003560e01c8063715018a6116100b8578063a5da77fa1161007c578063a5da77fa146103a9578063b0afe8bf146103bc578063e00c693f146103cf578063e757acd4146103e4578063ecf6305f146103f7578063f2fde38b1461042557600080fd5b8063715018a61461029f5780637847ea53146102a757806385936228146102b25780638da5cb5b1461037b5780638e27d7191461039657600080fd5b80633553ceed116100ff5780633553ceed146101c1578063375258051461023257806365282e301461024157806368fbe23e146102545780636b35445f1461028c57600080fd5b8063206ceae71461013c57806325c8a5ff146101515780632aedd0eb1461017a5780632e2951cd1461019b57806330b39a62146101ae575b600080fd5b61014f61014a366004611ebd565b610438565b005b61016461015f366004611f0b565b610578565b6040516101719190611f74565b60405180910390f35b61018d610188366004611f8e565b610624565b604051908152602001610171565b61014f6101a9366004611fdf565b610733565b61014f6101bc366004612036565b610a6e565b6102126101cf36600461207b565b6004602090815260009283526040909220815180830184018051928152908401929093019190912091528054600182015460028301546003909301549192909184565b604080519485526020850193909352918301526060820152608001610171565b61018d670de0b6b3a764000081565b61014f61024f366004612036565b610cc4565b610267610262366004611f8e565b610d80565b604080516001600160a01b039094168452602084019290925290820152606001610171565b61014f61029a3660046120c9565b610dcc565b61014f6110cc565b61018d6301e1338081565b61032a6102c0366004611f8e565b805180820160209081018051600280835293830192909401919091209290528154600183015491830154600384015460048501546005860154600687015460078801546008909801546001600160a01b039687169897909616969495939492939192909160ff1689565b604080516001600160a01b039a8b1681529990981660208a0152968801959095526060870193909352608086019190915260a085015260c084015260e0830152151561010082015261012001610171565b6001546040516001600160a01b039091168152602001610171565b61014f6103a4366004612036565b6110e0565b61014f6103b7366004612036565b611252565b61014f6103ca366004612036565b61142a565b6103d761169a565b6040516101719190612154565b61018d6103f2366004611f8e565b611773565b61040a61040536600461207b565b61179e565b60408051938452602084019290925290820152606001610171565b61014f6104333660046121b6565b6117fa565b610440611873565b60006001600160a01b031660028460405161045b91906121d1565b908152604051908190036020019020546001600160a01b03160361049a5760405162461bcd60e51b8152600401610491906121ed565b60405180910390fd5b6123288111156104ec5760405162461bcd60e51b815260206004820152601a60248201527f436f6c6c61746572616c20666163746f7220746f6f20686967680000000000006044820152606401610491565b816002846040516104fd91906121d1565b9081526020016040518091039020600301819055508060028460405161052391906121d1565b9081526020016040518091039020600401819055507f1efcd7df74bf9234917283882a7e1fa56892aedae875eb3a7b4d79d5263fe79e83838360405161056b9392919061221b565b60405180910390a1505050565b6003818154811061058857600080fd5b9060005260206000200160009150905080546105a390612240565b80601f01602080910402602001604051908101604052809291908181526020018280546105cf90612240565b801561061c5780601f106105f15761010080835404028352916020019161061c565b820191906000526020600020905b8154815290600101906020018083116105ff57829003601f168201915b505050505081565b60008060028360405161063791906121d1565b90815260405190819003602001902080549091506001600160a01b03166106705760405162461bcd60e51b8152600401610491906121ed565b600181015460408051633fabe5a360e21b815290516001600160a01b0390921691600091839163feaf968c9160048082019260a0929091908290030181865afa1580156106c1573d6000803e3d6000fd5b505050506040513d601f19601f820116820180604052508101906106e59190612294565b5050509150506000811361072b5760405162461bcd60e51b815260206004820152600d60248201526c496e76616c696420707269636560981b6044820152606401610491565b949350505050565b61073b6118cd565b60028260405161074b91906121d1565b9081526040519081900360200190206008015460ff1661077d5760405162461bcd60e51b8152600401610491906122e4565b336001600160a01b038416036107cd5760405162461bcd60e51b815260206004820152601560248201527421b0b73737ba103634b8bab4b230ba329039b2b63360591b6044820152606401610491565b600081116107ed5760405162461bcd60e51b81526004016104919061230e565b6107f78383611926565b6001600160a01b038316600090815260046020526040808220905161081d9085906121d1565b9081526020016040518091039020905060008160010154116108795760405162461bcd60e51b81526020600482015260156024820152744e6f206f75747374616e64696e6720626f72726f7760581b6044820152606401610491565b61088d8484836000015484600101546119f3565b156108da5760405162461bcd60e51b815260206004820152601960248201527f506f736974696f6e206973207374696c6c206865616c746879000000000000006044820152606401610491565b600181015482908111156108ef575060018101545b6101f46000612710610901838261235b565b61090b908561236e565b6109159190612385565b8454909150811115610925575082545b600060028760405161093791906121d1565b908152604051908190036020019020546001600160a01b0316905061095e81333087611a53565b8385600101600082825461097291906123a7565b909155505084548290869060009061098b9084906123a7565b92505081905550836002886040516109a391906121d1565b908152602001604051809103902060070160008282546109c391906123a7565b92505081905550816002886040516109db91906121d1565b908152602001604051809103902060060160008282546109fb91906123a7565b90915550610a1590506001600160a01b0382163384611ac4565b876001600160a01b03167f0c5c74172c210dc763261189af0730e1371952f378a510fcb395c0f83338352f888633604051610a52939291906123ba565b60405180910390a25050505050610a696001600055565b505050565b610a766118cd565b600282604051610a8691906121d1565b9081526040519081900360200190206008015460ff16610ab85760405162461bcd60e51b8152600401610491906122e4565b60008111610ad85760405162461bcd60e51b81526004016104919061230e565b610ae23383611926565b336000908152600460205260408082209051610aff9085906121d1565b908152602001604051809103902090508181600001541015610b5a5760405162461bcd60e51b8152602060048201526014602482015273496e73756666696369656e742062616c616e636560601b6044820152606401610491565b600181015415610be6578054600090610b749084906123a7565b9050610b8633858385600101546119f3565b610be45760405162461bcd60e51b815260206004820152602960248201527f5769746864726177616c20776f756c6420636175736520756e6865616c746879604482015268103837b9b4ba34b7b760b91b6064820152608401610491565b505b81816000016000828254610bfa91906123a7565b9250508190555081600284604051610c1291906121d1565b90815260200160405180910390206006016000828254610c3291906123a7565b925050819055506000600284604051610c4b91906121d1565b908152604051908190036020019020546001600160a01b03169050610c71813385611ac4565b336001600160a01b03167f901c03da5d88eb3d62ab4617e7b7d17d86db16356823a7971127d5181a842fef8585604051610cac9291906123ed565b60405180910390a25050610cc06001600055565b5050565b610ccc611873565b60006001600160a01b0316600283604051610ce791906121d1565b908152604051908190036020019020546001600160a01b031603610d1d5760405162461bcd60e51b8152600401610491906121ed565b80600283604051610d2e91906121d1565b9081526020016040518091039020600501819055507fcf57125e6ffa766b2a551e60f37e3fa32008e629991d9d22a8153c58efdf21608282604051610d749291906123ed565b60405180910390a15050565b600080600080600285604051610d9691906121d1565b908152604051908190036020019020805460068201546007909201546001600160a01b0390911695509093509150509193909250565b610dd4611873565b60006001600160a01b0316600287604051610def91906121d1565b908152604051908190036020019020546001600160a01b031614610e4c5760405162461bcd60e51b8152602060048201526014602482015273417373657420616c72656164792065786973747360601b6044820152606401610491565b6001600160a01b038516610e9a5760405162461bcd60e51b8152602060048201526015602482015274496e76616c696420746f6b656e206164647265737360581b6044820152606401610491565b6001600160a01b038416610ef05760405162461bcd60e51b815260206004820152601a60248201527f496e76616c6964207072696365206665656420616464726573730000000000006044820152606401610491565b612328821115610f425760405162461bcd60e51b815260206004820152601a60248201527f436f6c6c61746572616c20666163746f7220746f6f20686967680000000000006044820152606401610491565b604051806101200160405280866001600160a01b03168152602001856001600160a01b031681526020018260ff168152602001848152602001838152602001848152602001600081526020016000815260200160011515815250600287604051610fac91906121d1565b9081526040805160209281900383019020835181546001600160a01b03199081166001600160a01b039283161783559385015160018084018054909616919092161790935590830151600282015560608301516003808301919091556080840151600483015560a0840151600583015560c0840151600683015560e08401516007830155610100909301516008909101805460ff1916911515919091179055815490810182556000919091527fc2575a0e9e593c00f959f8c92f12db2869c3395a3b0502d05e2516446f71f85b01611084878261245d565b507faa8edbe272b702be9c1ef776727e7cfa71f99ad90b330579712178845f704ef986868686866040516110bc95949392919061251d565b60405180910390a1505050505050565b6110d4611873565b6110de6000611af4565b565b6110e86118cd565b6002826040516110f891906121d1565b9081526040519081900360200190206008015460ff1661112a5760405162461bcd60e51b8152600401610491906122e4565b6000811161114a5760405162461bcd60e51b81526004016104919061230e565b6111543383611926565b600060028360405161116691906121d1565b908152604051908190036020019020546001600160a01b0316905061118d81333085611a53565b336000908152600460205260409081902090518391906111ae9086906121d1565b908152602001604051809103902060000160008282546111ce919061235b565b92505081905550816002846040516111e691906121d1565b90815260200160405180910390206006016000828254611206919061235b565b909155505060405133907f2d4b597935f3cd67fb2eebf1db4debc934cee5c7baa7153f980fdbeb2e74084e9061123f90869086906123ed565b60405180910390a250610cc06001600055565b61125a6118cd565b60028260405161126a91906121d1565b9081526040519081900360200190206008015460ff1661129c5760405162461bcd60e51b8152600401610491906122e4565b600081116112bc5760405162461bcd60e51b81526004016104919061230e565b6112c63383611926565b3360009081526004602052604080822090516112e39085906121d1565b90815260200160405180910390209050600081600101541161133f5760405162461bcd60e51b81526020600482015260156024820152744e6f206f75747374616e64696e6720626f72726f7760581b6044820152606401610491565b60018101548290811115611354575060018101545b600060028560405161136691906121d1565b908152604051908190036020019020546001600160a01b0316905061138d81333085611a53565b818360010160008282546113a191906123a7565b92505081905550816002866040516113b991906121d1565b908152602001604051809103902060070160008282546113d991906123a7565b909155505060405133907f67460d06167f79f1df176c0cfc28721f6d6f0730d197dd2421977de23ba444fb90611415908890869060009061221b565b60405180910390a2505050610cc06001600055565b6114326118cd565b60028260405161144291906121d1565b9081526040519081900360200190206008015460ff166114745760405162461bcd60e51b8152600401610491906122e4565b600081116114945760405162461bcd60e51b81526004016104919061230e565b61149e3383611926565b3360009081526004602052604080822090516114bb9085906121d1565b9081526020016040518091039020905060008282600101546114dd919061235b565b90506114ef33858460000154846119f3565b6115495760405162461bcd60e51b815260206004820152602560248201527f426f72726f7720776f756c6420636175736520756e6865616c74687920706f7360448201526434ba34b7b760d91b6064820152608401610491565b8260028560405161155a91906121d1565b90815260200160405180910390206007015460028660405161157c91906121d1565b90815260200160405180910390206006015461159891906123a7565b10156115e65760405162461bcd60e51b815260206004820152601e60248201527f496e73756666696369656e74206c697175696469747920696e20706f6f6c00006044820152606401610491565b8082600101819055508260028560405161160091906121d1565b90815260200160405180910390206007016000828254611620919061235b565b92505081905550600060028560405161163991906121d1565b908152604051908190036020019020546001600160a01b0316905061165f813386611ac4565b336001600160a01b03167ffbb1365a39abe1ef4dafcb6483cbfc3301ffef63804560005d84a3075a5d0c3786866040516114159291906123ed565b60606003805480602002602001604051908101604052809291908181526020016000905b8282101561176a5783829060005260206000200180546116dd90612240565b80601f016020809104026020016040519081016040528092919081815260200182805461170990612240565b80156117565780601f1061172b57610100808354040283529160200191611756565b820191906000526020600020905b81548152906001019060200180831161173957829003601f168201915b5050505050815260200190600101906116be565b50505050905090565b600060028260405161178591906121d1565b9081526020016040518091039020600501549050919050565b6001600160a01b0382166000908152600460205260408082209051829182918291906117cb9087906121d1565b908152602001604051809103902090506117e58686611b46565b81546001909201549197919650945092505050565b611802611873565b6001600160a01b0381166118675760405162461bcd60e51b815260206004820152602660248201527f4f776e61626c653a206e6577206f776e657220697320746865207a65726f206160448201526564647265737360d01b6064820152608401610491565b61187081611af4565b50565b6001546001600160a01b031633146110de5760405162461bcd60e51b815260206004820181905260248201527f4f776e61626c653a2063616c6c6572206973206e6f7420746865206f776e65726044820152606401610491565b60026000540361191f5760405162461bcd60e51b815260206004820152601f60248201527f5265656e7472616e637947756172643a207265656e7472616e742063616c6c006044820152606401610491565b6002600055565b6001600160a01b038216600090815260046020526040808220905161194c9084906121d1565b9081526020016040518091039020905080600101546000148061197157506002810154155b1561198157426002909101555050565b600061198d8484611b46565b905080156119e757808260010160008282546119a9919061235b565b92505081905550806002846040516119c191906121d1565b908152602001604051809103902060070160008282546119e1919061235b565b90915550505b50426002909101555050565b600081600003611a055750600161072b565b6000600285604051611a1791906121d1565b9081526040519081900360200190206004015490506000612710611a3b838761236e565b611a459190612385565b909311159695505050505050565b6040516001600160a01b0380851660248301528316604482015260648101829052611abe9085906323b872dd60e01b906084015b60408051601f198184030181529190526020810180516001600160e01b03166001600160e01b031990931692909217909152611c22565b50505050565b6040516001600160a01b038316602482015260448101829052610a6990849063a9059cbb60e01b90606401611a87565b600180546001600160a01b038381166001600160a01b0319831681179093556040519116919082907f8be0079c531659141344cd1fd0a4f28419497f9722a3daafe3b4186f6b6457e090600090a35050565b6001600160a01b0382166000908152600460205260408082209051829190611b6f9085906121d1565b90815260200160405180910390209050806001015460001480611b9457506002810154155b15611ba3576000915050611c1c565b6000816002015442611bb591906123a7565b90506000600285604051611bc991906121d1565b9081526040519081900360200190206005015490506000611bf06301e1338061271061236e565b83838660010154611c01919061236e565b611c0b919061236e565b611c159190612385565b9450505050505b92915050565b6000611c77826040518060400160405280602081526020017f5361666545524332303a206c6f772d6c6576656c2063616c6c206661696c6564815250856001600160a01b0316611cf79092919063ffffffff16565b9050805160001480611c98575080806020019051810190611c98919061255d565b610a695760405162461bcd60e51b815260206004820152602a60248201527f5361666545524332303a204552433230206f7065726174696f6e20646964206e6044820152691bdd081cdd58d8d9595960b21b6064820152608401610491565b606061072b848460008585600080866001600160a01b03168587604051611d1e91906121d1565b60006040518083038185875af1925050503d8060008114611d5b576040519150601f19603f3d011682016040523d82523d6000602084013e611d60565b606091505b5091509150611d7187838387611d7c565b979650505050505050565b60608315611deb578251600003611de4576001600160a01b0385163b611de45760405162461bcd60e51b815260206004820152601d60248201527f416464726573733a2063616c6c20746f206e6f6e2d636f6e74726163740000006044820152606401610491565b508161072b565b61072b8383815115611e005781518083602001fd5b8060405162461bcd60e51b81526004016104919190611f74565b634e487b7160e01b600052604160045260246000fd5b600082601f830112611e4157600080fd5b813567ffffffffffffffff80821115611e5c57611e5c611e1a565b604051601f8301601f19908116603f01168101908282118183101715611e8457611e84611e1a565b81604052838152866020858801011115611e9d57600080fd5b836020870160208301376000602085830101528094505050505092915050565b600080600060608486031215611ed257600080fd5b833567ffffffffffffffff811115611ee957600080fd5b611ef586828701611e30565b9660208601359650604090950135949350505050565b600060208284031215611f1d57600080fd5b5035919050565b60005b83811015611f3f578181015183820152602001611f27565b50506000910152565b60008151808452611f60816020860160208601611f24565b601f01601f19169290920160200192915050565b602081526000611f876020830184611f48565b9392505050565b600060208284031215611fa057600080fd5b813567ffffffffffffffff811115611fb757600080fd5b61072b84828501611e30565b80356001600160a01b0381168114611fda57600080fd5b919050565b600080600060608486031215611ff457600080fd5b611ffd84611fc3565b9250602084013567ffffffffffffffff81111561201957600080fd5b61202586828701611e30565b925050604084013590509250925092565b6000806040838503121561204957600080fd5b823567ffffffffffffffff81111561206057600080fd5b61206c85828601611e30565b95602094909401359450505050565b6000806040838503121561208e57600080fd5b61209783611fc3565b9150602083013567ffffffffffffffff8111156120b357600080fd5b6120bf85828601611e30565b9150509250929050565b60008060008060008060c087890312156120e257600080fd5b863567ffffffffffffffff8111156120f957600080fd5b61210589828a01611e30565b96505061211460208801611fc3565b945061212260408801611fc3565b9350606087013592506080870135915060a087013560ff8116811461214657600080fd5b809150509295509295509295565b6000602080830181845280855180835260408601915060408160051b870101925083870160005b828110156121a957603f19888603018452612197858351611f48565b9450928501929085019060010161217b565b5092979650505050505050565b6000602082840312156121c857600080fd5b611f8782611fc3565b600082516121e3818460208701611f24565b9190910192915050565b602080825260149082015273105cdcd95d08191bd95cc81b9bdd08195e1a5cdd60621b604082015260600190565b60608152600061222e6060830186611f48565b60208301949094525060400152919050565b600181811c9082168061225457607f821691505b60208210810361227457634e487b7160e01b600052602260045260246000fd5b50919050565b805169ffffffffffffffffffff81168114611fda57600080fd5b600080600080600060a086880312156122ac57600080fd5b6122b58661227a565b94506020860151935060408601519250606086015191506122d86080870161227a565b90509295509295909350565b60208082526010908201526f4173736574206e6f742061637469766560801b604082015260600190565b6020808252601d908201527f416d6f756e74206d7573742062652067726561746572207468616e2030000000604082015260600190565b634e487b7160e01b600052601160045260246000fd5b80820180821115611c1c57611c1c612345565b8082028115828204841417611c1c57611c1c612345565b6000826123a257634e487b7160e01b600052601260045260246000fd5b500490565b81810381811115611c1c57611c1c612345565b6060815260006123cd6060830186611f48565b6020830194909452506001600160a01b0391909116604090910152919050565b6040815260006124006040830185611f48565b90508260208301529392505050565b601f821115610a6957600081815260208120601f850160051c810160208610156124365750805b601f850160051c820191505b8181101561245557828155600101612442565b505050505050565b815167ffffffffffffffff81111561247757612477611e1a565b61248b816124858454612240565b8461240f565b602080601f8311600181146124c057600084156124a85750858301515b600019600386901b1c1916600185901b178555612455565b600085815260208120601f198616915b828110156124ef578886015182559484019460019091019084016124d0565b508582101561250d5787850151600019600388901b60f8161c191681555b5050505050600190811b01905550565b60a08152600061253060a0830188611f48565b6001600160a01b039687166020840152949095166040820152606081019290925260809091015292915050565b60006020828403121561256f57600080fd5b81518015158114611f8757600080fdfea2646970667358221220643b58b60e2da3696ac8c3d32be5d8ce4162ac34bb5a9c0700e6252407d76dea64736f6c63430008130033",
  "linkReferences": {},
  "deployedLinkReferences": {}
}