{
  "_format": "hh-sol-artifact-1",
  "contractName": "MockPriceFeed",
  "sourceName": "contracts/mocks/MockPriceFeed.sol",
  "abi": [
    {
      "inputs": [],
      "stateMutability": "nonpayable",
      "type": "constructor"
    },
    {
      "inputs": [],
      "name": "decimals",
      "outputs": [
        {
          "internalType": "uint8",
          "name": "",
          "type": "uint8"
        }
      ],
      "stateMutability": "view",
      "type": "function"
    },
    {
      "inputs": [],
      "name": "description",
      "outputs": [
        {
          "internalType": "string",
          "name": "",
          "type": "string"
        }
      ],
      "stateMutability": "view",
      "type": "function"
    },
    {
      "inputs": [
        {
          "internalType": "uint80",
          "name": "_roundId",
          "type": "uint80"
        }
      ],
      "name": "getRoundData",
      "outputs": [
        {
          "internalType": "uint80",
          "name": "roundId",
          "type": "uint80"
        },
        {
          "internalType": "int256",
          "name": "answer",
          "type": "int256"
        },
        {
          "internalType": "uint256",
          "name": "startedAt",
          "type": "uint256"
        },
        {
          "internalType": "uint256",
          "name": "updatedAt",
          "type": "uint256"
        },
        {
          "internalType": "uint80",
          "name": "answeredInRound",
          "type": "uint80"
        }
      ],
      "stateMutability": "view",
      "type": "function"
    },
    {
      "inputs": [],
      "name": "latestRoundData",
      "outputs": [
        {
          "internalType": "uint80",
          "name": "roundId",
          "type": "uint80"
        },
        {
          "internalType": "int256",
          "name": "answer",
          "type": "int256"
        },
        {
          "internalType": "uint256",
          "name": "startedAt",
          "type": "uint256"
        },
        {
          "internalType": "uint256",
          "name": "updatedAt",
          "type": "uint256"
        },
        {
          "internalType": "uint80",
          "name": "answeredInRound",
          "type": "uint80"
        }
      ],
      "stateMutability": "view",
      "type": "function"
    },
    {
      "inputs": [
        {
          "internalType": "int256",
          "name": "newPrice",
          "type": "int256"
        }
      ],
      "name": "setPrice",
      "outputs": [],
      "stateMutability": "nonpayable",
      "type": "function"
    },
    {
      "inputs": [],
      "name": "version",
      "outputs": [
        {
          "internalType": "uint256",
          "name": "",
          "type": "uint256"
        }
      ],
      "stateMutability": "view",
      "type": "function"
    }
  ],
  "bytecode": "0x608060405234801561001057600080fd5b5064174876e8006000556001805460ff1916600817905560408051808201909152600f81526e135bd8dac8141c9a58d94811995959608a1b602082015260029061005a9082610104565b5060016003556101c3565b634e487b7160e01b600052604160045260246000fd5b600181811c9082168061008f57607f821691505b6020821081036100af57634e487b7160e01b600052602260045260246000fd5b50919050565b601f8211156100ff57600081815260208120601f850160051c810160208610156100dc5750805b601f850160051c820191505b818110156100fb578281556001016100e8565b5050505b505050565b81516001600160401b0381111561011d5761011d610065565b6101318161012b845461007b565b846100b5565b602080601f831160018114610166576000841561014e5750858301515b600019600386901b1c1916600185901b1785556100fb565b600085815260208120601f198616915b8281101561019557888601518255948401946001909101908401610176565b50858210156101b35787850151600019600388901b60f8161c191681555b5050505050600190811b01905550565b6102b8806101d26000396000f3fe608060405234801561001057600080fd5b50600436106100625760003560e01c8063313ce5671461006757806354fd4d50146100815780637284e416146100925780639a6fc8f5146100a7578063f7a30806146100f9578063feaf968c1461010e575b600080fd5b60015460405160ff90911681526020015b60405180910390f35b600354604051908152602001610078565b61009a61011c565b60405161007891906101ae565b6100c26100b53660046101fc565b6000549091429081908490565b6040805169ffffffffffffffffffff968716815260208101959095528401929092526060830152909116608082015260a001610078565b61010c61010736600461022f565b600055565b005b6000546001904280836100c2565b60606002805461012b90610248565b80601f016020809104026020016040519081016040528092919081815260200182805461015790610248565b80156101a45780601f10610179576101008083540402835291602001916101a4565b820191906000526020600020905b81548152906001019060200180831161018757829003601f168201915b5050505050905090565b600060208083528351808285015260005b818110156101db578581018301518582016040015282016101bf565b506000604082860101526040601f19601f8301168501019250505092915050565b60006020828403121561020e57600080fd5b813569ffffffffffffffffffff8116811461022857600080fd5b9392505050565b60006020828403121561024157600080fd5b5035919050565b600181811c9082168061025c57607f821691505b60208210810361027c57634e487b7160e01b600052602260045260246000fd5b5091905056fea2646970667358221220502d653ed0c381dbb6926fe4f7afa8045851384384db8c619d3fc0a2ecf122ea64736f6c63430008130033",
  "linkReferences": {},
  "deployedLinkReferences": {}
}